S01300004C6F67696E53797374656D2E7372656393
S11300000C942A000C9447000C9447000C9447006D
S11300100C9447000C9447000C9447000C94470040
S11300200C9447000C9447000C9447000C94470030
S11300300C9447000C9447000C9447000C94470020
S11300400C9447000C9447000C9447000C94470010
S11300500C94470011241FBECFE5D8E0DEBFCDBF0E
S113006010E0A0E6B0E0EEECFDE002C005900D92D9
S1130070AE3FB107D9F721E0AEEFB0E001C01D9269
S1130080A330B207E1F70E94A1030C94E5060C9497
S11300900000CF93DF93C0E6D0E041E0688181E0C7
S11300A00E94820441E0698181E00E948204DF9120
S11300B0CF910895CF93DF93C82FC695C6958370CB
S11300C0E82FF0E0EE0FFF1FE25AFF4F6081D1816D
S11300D0CC2319F0C13019F003C0C1E001C0C2E063
S11300E041E08C2F0E940A0540E06D2F8C2F0E9466
S11300F00A05DF91CF910895CF93DF93C82FC6955A
S1130100C6958370E82FF0E0EE0FFF1FE25AFF4F11
S11301106081D181CC2319F0C13019F003C0C1E052
S113012001C0C2E040E08C2F0E940A0541E06D2F1F
S11301308C2F0E940A05DF91CF910895CF93DF930E
S1130140C82FC695C6958370E82FF0E0EE0FFF1F09
S1130150E25AFF4F6081D181CC2319F0C13019F0EC
S113016003C0C1E001C0C2E040E08C2F0E940A0538
S113017040E06D2F8C2F0E940A05DF91CF910895E6
S1130180CF92DF92EF92FF920F931F93CF93DF935F
S113019004E710E0C0E7D0E00F2EF4E7CF2EF0E044
S11301A0DF2EF02DF80161918F0141E082E00E9481
S11301B082047E0140E0699182E00E94820441E071
S11301C0F701608182E00E94C305CC15DD0551F77B
S11301D0DF91CF911F910F91FF90EF90DF90CF901F
S11301E008956F927F928F929F92AF92BF92CF9217
S11301F0DF92EF92FF920F931F93CF93DF930F2E13
S1130200F4E7EF2EF0E0FF2EF02D08E710E0E70111
S1130210699141E082E00E940A05C017D107C1F745
S1130220C12CD12C4601570140E0F701608182E0E6
S11302300E940A05C0E7D0E0612C712C830169910A
S113024082E00E948E0581110BC0000F111F000F68
S1130250111F04581F4FF801E80DF91D808118C0C3
S1130260FFEF6F1A7F0A84E06816710439F7EFEF25
S1130270EE1AFE0A41E0F501608182E00E940A055F
S1130280FFEFCF1ADF0A84E0C816D10459F68FE3D2
S1130290DF91CF911F910F91FF90EF90DF90CF905E
S11302A0BF90AF909F908F907F906F900895EF9242
S11302B0FF920F931F93CF93DF93E82E40E061E00A
S11302C084E00E940A0541E062E084E00E940A059D
S11302D0C4E0D0E0F12C8701A7010C2E02C0559593
S11302E047950A94E2F741706C2F84E00E940A0556
S11302F02196C830D10579F741E060E084E00E949E
S11303000A0562E070E080E090E00E94390340E07A
S113031060E084E00E940A05C4E0E12CF12CA8010D
S11303200E2C02C0559547950A94E2F741706C2F44
S113033084E00E940A058FEFE81AF80ACF5FC830FC
S113034071F741E060E084E00E940A0562E070E039
S113035080E090E00E94390340E060E084E00E9485
S11303600A05DF91CF911F910F91FF90EF900895AF
S1130370EF92FF920F931F93CF93DF93E82E40E009
S113038061E084E00E940A0540E062E084E00E94AB
S11303900A05C4E0D0E0F12C8701A7010C2E02C0AD
S11303A0559547950A94E2F741706C2F84E00E94BA
S11303B00A052196C830D10579F741E060E084E070
S11303C00E940A0562E070E080E090E00E94390338
S11303D040E060E084E00E940A05C4E0E12CF12CD6
S11303E0A8010E2C02C0559547950A94E2F7417076
S11303F06C2F84E00E940A058FEFE81AF80ACF5F99
S1130400C83071F741E060E084E00E940A0562E0D0
S113041070E080E090E00E94390340E060E084E016
S11304200E940A05DF91CF911F910F91FF90EF90E9
S11304300895EF92FF920F931F93CF93DF9341E0C0
S113044062E084E00E94820441E061E084E00E9472
S1130450820441E060E084E00E94820461E084E080
S11304600E94660462E370E080E090E00E94390339
S1130470809178008B7F88608093780082E20E946C
S1130480B801809178000E94B80161E070E080E0DA
S113049090E00E943903809179000E94B80161E0E4
S11304A070E080E090E00E94390381E00E94B8018E
S11304B062E070E080E090E00E94390386E00E94F0
S11304C0B80162E070E080E090E00E94390380E4CB
S11304D00E94B801CCE8D0E00F2EFCECEF2EF0E047
S11304E0FF2EF02D0AC089910E945701C017D10731
S11304F0D1F7E801E016F10621F08E01085F1F4FE5
S1130500F2CF80E80E94B801DF91CF911F910F9143
S1130510FF90EF90089581E00E94B8010895813022
S113052019F0823029F0089580E80E94B8010895F6
S113053080EC0E94B80108958A3020F4805D0E9406
S1130540570108950E9457010895BF92CF92DF92F8
S1130550EF92FF920F931F93CF93DF93EC016111FE
S113056048C0C880D980EA80FB80C114D104E1046A
S1130570F10421F480E00E949C0246C0D0E019E01E
S1130580C12FCD1B6C2F8AE00E947E039B01AC011E
S1130590C701B6010E945706232B242B252B29F1D2
S11305A0DA3090F56C2F8AE00E947E039B01AC0147
S11305B0C701B6010E945706B62E072F182FD92F50
S11305C06C2F8AE00E947E039B01AC01C701B60137
S11305D00E945706822F0E949C02C150CB2CD02E21
S11305E0E12EFD2ECF3FF1F60FC0DF5FDA3041F68A
S11305F00BC0613049F48881882331F021960E9430
S11306009C0289918111FBCFDF91CF911F910F91B2
S1130610FF90EF90DF90CF90BF900895811106C0B6
S1130620809179008D7F8093790005C08091790055
S1130630826080937900809179000E94B8010895C6
S1130640811106C0809179008E7F8093790005C066
S113065080917900816080937900809179000E9473
S1130660B801089541E00E94820408950E940A0599
S113067008958F929F92AF92BF92CF92DF92EF92A2
S1130680FF920F939B01AC0160EA76E881E090E071
S11306900E944706665679408109910929EB35E79E
S11306A049E757E00E94840600E20E94B106822EC8
S11306B0932EA42EB52EB694A79497948794B694AB
S11306C0A7949794879481149104A104B10461F0D0
S11306D080E090E0DC0100000196A11DB11D8816A8
S11306E09906AA06BB06B9F70F91FF90EF90DF9029
S11306F0CF90BF90AF909F908F900895CF92DF924C
S1130700EF92FF92C82EF62F662391F0E0E061E0AD
S113071070E080E090E0D12CE12CF12C9B01AC0145
S1130720C701B6010E944706EF5FFE13F7CF04C06E
S113073061E070E080E090E0FF90EF90DF90CF9078
S113074008950E94490060E081E00E94320361E064
S113075081E00E9432030E9419020E94C00080E0DE
S11307600E940E0380E00E94200361E08CEC90E084
S11307700E94A50282E00E948F02CFEFD0E041E008
S113078061E081E00E94360340E060E081E00E9485
S113079036030E94F10080937B0080917B008F33AD
S11307A071F380917B0080917B008A3030F48091DA
S11307B07B00805D80937A0004C080917B008093ED
S11307C07A0080917A000E949C02E091FE00F0E0A1
S11307D080917B00E150FF4F808364EF71E080E003
S11307E090E00E9439038091FE008F5F8093FE00A9
S11307F0843028F28881813009F048C089818230B0
S113080009F044C08A81833009F040C08B81843070
S1130810E9F50E948B0282E00E948F0261E085ED7F
S113082090E00E94A50268EB7BE080E090E00E94EB
S113083039030E948B0281E00E948F0261E08FEDF8
S113084090E00E94A50282E00E948F0241E060E0F5
S113085081E00E94360340E061E081E00E943603BB
S113086081E00E945A0068E873E180E090E00E9411
S1130870390381E00E947C0068E873E180E090E045
S11308800E94390381E00E949E001DC00E948B02D9
S113089082E00E948F0261E087EE90E00E94A50250
S11308A060ED77E080E090E00E9439030E948B02C3
S11308B081E00E948F0261E082EF90E00E94A50235
S11308C082E00E948F021092FE0059CF613009F439
S11308D06FEF823061F018F4813031F011C0833051
S11308E049F0843051F00CC06ABB80E0089567BBC6
S11308F080E0089564BB80E0089561BB80E00895C2
S113090081E00895683008F07FC0423008F07EC06E
S1130910823031F118F4813039F07AC08330E1F15A
S1130920843009F455C074C041110DC09AB321E05C
S113093030E002C0220F331F6A95E2F7822F8095C0
S113094089238ABB0AC02AB381E090E002C0880FE1
S1130950991F6A95E2F7822B8ABB8ABB80E00895CF
S113096041110DC097B321E030E002C0220F331FC4
S11309706A95E2F7822F8095892387BB0AC027B343
S113098081E090E002C0880F991F6A95E2F7822BFC
S113099087BB87BB80E0089541110DC094B321E06B
S11309A030E002C0220F331F6A95E2F7822F809550
S11309B0892384BB0AC024B381E090E002C0880F7D
S11309C0991F6A95E2F7822B84BB84BB80E008956B
S11309D041110DC091B321E030E002C0220F331F5A
S11309E06A95E2F7822F8095892381BB0AC021B3DF
S11309F081E090E002C0880F991F6A95E2F7822B8C
S1130A0081BB81BB80E0089582E0089583E008956E
S1130A1081E00895683008F07BC0423008F07AC065
S1130A20823029F118F4813039F076C08330D1F165
S1130A30843009F452C070C041110DC02BB381E061
S1130A4090E002C0880F991F6A95E2F7809582238F
S1130A508BBB80E008952BB381E090E002C0880F47
S1130A60991F6A95E2F7822B8BBB80E008954111B0
S1130A700DC028B381E090E002C0880F991F6A95E9
S1130A80E2F78095822388BB80E0089528B381E053
S1130A9090E002C0880F991F6A95E2F7822B88BB09
S1130AA080E0089541110DC025B381E090E002C0BB
S1130AB0880F991F6A95E2F78095822385BB80E0B1
S1130AC0089525B381E090E002C0880F991F6A95CC
S1130AD0E2F7822B85BB80E0089541110DC022B35B
S1130AE081E090E002C0880F991F6A95E2F7809533
S1130AF0822382BB80E0089522B381E090E002C0AB
S1130B00880F991F6A95E2F7822B82BB80E00895D3
S1130B1082E0089583E0089581E00895683078F5CF
S1130B20823091F018F4813031F02BC08330A9F079
S1130B308430E1F026C089B390E002C09595879592
S1130B406A95E2F78170089586B390E002C09595A6
S1130B5087956A95E2F78170089583B390E002C0A7
S1130B60959587956A95E2F78170089580B390E032
S1130B7002C0959587956A95E2F78170089583E0A0
S1130B80089582E00895423008F07BC0683008F090
S1130B907AC0823029F118F4813039F076C083307C
S1130BA0D1F1843009F452C070C041110DC02BB38F
S1130BB081E090E002C0880F991F6A95E2F7809562
S1130BC082238BBB80E008952BB381E090E002C0C8
S1130BD0880F991F6A95E2F7822B8BBB80E00895FA
S1130BE041110DC028B381E090E002C0880F991F25
S1130BF06A95E2F78095822388BB80E0089528B344
S1130C0081E090E002C0880F991F6A95E2F7822B79
S1130C1088BB80E0089541110DC025B381E090E0C8
S1130C2002C0880F991F6A95E2F78095822385BBDD
S1130C3080E0089525B381E090E002C0880F991FF9
S1130C406A95E2F7822B85BB80E0089541110DC0BF
S1130C5022B381E090E002C0880F991F6A95E2F701
S1130C608095822382BB80E0089522B381E090E0E6
S1130C7002C0880F991F6A95E2F7822B82BB80E03D
S1130C80089583E0089582E0089581E00895DB01EA
S1130C908F939F930E947906BF91AF91A29F800D7D
S1130CA0911DA39F900DB29F900D11240895A1E270
S1130CB01A2EAA1BBB1BFD010DC0AA1FBB1FEE1FD2
S1130CC0FF1FA217B307E407F50720F0A21BB30B1D
S1130CD0E40BF50B661F771F881F991F1A9469F799
S1130CE060957095809590959B01AC01BD01CF01F5
S1130CF008950E94CD06A59F900DB49F900DA49FCA
S1130D00800D911D11240895E894DF93CF93FC0185
S1130D10DB010E94CD067F936F93E9019A01AC0138
S1130D20BF93AF933F932F93DF010E94CD0626F428
S1130D306C1B7D0B820B930B9E01EB01FC010E944B
S1130D40DC06AF91BF912F913F910E94DC06BE015A
S1130D50CF01F9012F913F91CF91DF91089597FB36
S1130D6010F8169400080F93083098F00850232FB9
S1130D70342F452F562F672F782F892F902DF4CF9E
S1130D8005949795879577956795579547953795E2
S1130D9027950A95AAF70F910895A29FB001B39FD2
S1130DA0C001A39F700D811D1124911DB29F700D70
S1130DB0811D1124911D08950E94CD06460F571FD1
S1110DC0C81FD91F08F431960895F894FFCF88
S1130DCE02030203040506070001020304050607D5
S1130DDE0302010004050607280F20200102034127
S1130DEE040506420708094323002A44000A1F1F6C
S1130DFE0E040000040E1515040400000E1F1F1F20
S1130E0E000E000000040E1F0E040000040E1F1B33
S1130E1E11000000111B0E040E1B11001F15151FCF
S1130E2E15151F000E1D191F0E001F0057656C634C
S1130E3E6F6D653A004C6F6767656420696E005785
S1130E4E656C636F6D650057726F6E6720706173AA
S1110E5E7300456E746572207061737300003A
S9030000FC
